{
  "abi": [
    {
      "inputs": [
        {
          "internalType": "bytes32",
          "name": "_lagrangeTreeRoot",
          "type": "bytes32"
        },
        {
          "internalType": "uint256",
          "name": "_accumulatorX",
          "type": "uint256"
        },
        {
          "internalType": "uint256",
          "name": "_accumulatorY",
          "type": "uint256"
        }
      ],
      "stateMutability": "nonpayable",
      "type": "constructor"
    },
    {
      "inputs": [
        {
          "internalType": "uint256",
          "name": "_identityCommitment",
          "type": "uint256"
        }
      ],
      "name": "InvalidIdentityCommitment",
      "type": "error"
    },
    {
      "inputs": [],
      "name": "InvalidProof",
      "type": "error"
    },
    {
      "inputs": [
        {
          "internalType": "uint256",
          "name": "_nullifierHash",
          "type": "uint256"
        }
      ],
      "name": "NullifierHashAlreadySeen",
      "type": "error"
    },
    {
      "inputs": [
        {
          "internalType": "bytes32",
          "name": "_generatedRoot",
          "type": "bytes32"
        }
      ],
      "name": "RootMismatch",
      "type": "error"
    },
    {
      "anonymous": false,
      "inputs": [
        {
          "indexed": true,
          "internalType": "uint256",
          "name": "_signalHash",
          "type": "uint256"
        },
        {
          "indexed": true,
          "internalType": "uint256",
          "name": "_externalNullifier",
          "type": "uint256"
        }
      ],
      "name": "BroadcastSignal",
      "type": "event"
    },
    {
      "anonymous": false,
      "inputs": [
        {
          "indexed": true,
          "internalType": "uint256",
          "name": "_index",
          "type": "uint256"
        },
        {
          "indexed": true,
          "internalType": "uint256",
          "name": "_identityCommitment",
          "type": "uint256"
        }
      ],
      "name": "InsertIdentity",
      "type": "event"
    },
    {
      "inputs": [
        {
          "internalType": "bytes",
          "name": "_signal",
          "type": "bytes"
        },
        {
          "components": [
            {
              "components": [
                {
                  "internalType": "uint256",
                  "name": "q1_opening",
                  "type": "uint256"
                },
                {
                  "internalType": "uint256",
                  "name": "q2_opening",
                  "type": "uint256"
                },
                {
                  "internalType": "uint256",
                  "name": "q3_opening",
                  "type": "uint256"
                },
                {
                  "internalType": "uint256",
                  "name": "q4_opening",
                  "type": "uint256"
                },
                {
                  "components": [
                    {
                      "internalType": "uint256",
                      "name": "x",
                      "type": "uint256"
                    },
                    {
                      "internalType": "uint256",
                      "name": "y",
                      "type": "uint256"
                    }
                  ],
                  "internalType": "struct Types.G1Point",
                  "name": "f_cm",
                  "type": "tuple"
                },
                {
                  "components": [
                    {
                      "internalType": "uint256",
                      "name": "x",
                      "type": "uint256"
                    },
                    {
                      "internalType": "uint256",
                      "name": "y",
                      "type": "uint256"
                    }
                  ],
                  "internalType": "struct Types.G1Point",
                  "name": "final_poly_proof",
                  "type": "tuple"
                }
              ],
              "internalType": "struct Types.MultiopenProof",
              "name": "multiopenProof",
              "type": "tuple"
            },
            {
              "components": [
                {
                  "internalType": "uint256",
                  "name": "q_mimc",
                  "type": "uint256"
                },
                {
                  "internalType": "uint256",
                  "name": "mimc_cts",
                  "type": "uint256"
                },
                {
                  "internalType": "uint256",
                  "name": "quotient",
                  "type": "uint256"
                },
                {
                  "internalType": "uint256",
                  "name": "u_prime",
                  "type": "uint256"
                },
                {
                  "internalType": "uint256",
                  "name": "p1",
                  "type": "uint256"
                },
                {
                  "internalType": "uint256",
                  "name": "p2",
                  "type": "uint256"
                },
                {
                  "internalType": "uint256",
                  "name": "w0_0",
                  "type": "uint256"
                },
                {
                  "internalType": "uint256",
                  "name": "w0_1",
                  "type": "uint256"
                },
                {
                  "internalType": "uint256",
                  "name": "w0_2",
                  "type": "uint256"
                },
                {
                  "internalType": "uint256",
                  "name": "w1_0",
                  "type": "uint256"
                },
                {
                  "internalType": "uint256",
                  "name": "w1_1",
                  "type": "uint256"
                },
                {
                  "internalType": "uint256",
                  "name": "w1_2",
                  "type": "uint256"
                },
                {
                  "internalType": "uint256",
                  "name": "w2_0",
                  "type": "uint256"
                },
                {
                  "internalType": "uint256",
                  "name": "w2_1",
                  "type": "uint256"
                },
                {
                  "internalType": "uint256",
                  "name": "w2_2",
                  "type": "uint256"
                },
                {
                  "internalType": "uint256",
                  "name": "key_0",
                  "type": "uint256"
                },
                {
                  "internalType": "uint256",
                  "name": "key_1",
                  "type": "uint256"
                }
              ],
              "internalType": "struct Types.Openings",
              "name": "openings",
              "type": "tuple"
            },
            {
              "components": [
                {
                  "components": [
                    {
                      "internalType": "uint256",
                      "name": "x",
                      "type": "uint256"
                    },
                    {
                      "internalType": "uint256",
                      "name": "y",
                      "type": "uint256"
                    }
                  ],
                  "internalType": "struct Types.G1Point",
                  "name": "w0",
                  "type": "tuple"
                },
                {
                  "components": [
                    {
                      "internalType": "uint256",
                      "name": "x",
                      "type": "uint256"
                    },
                    {
                      "internalType": "uint256",
                      "name": "y",
                      "type": "uint256"
                    }
                  ],
                  "internalType": "struct Types.G1Point",
                  "name": "w1",
                  "type": "tuple"
                },
                {
                  "components": [
                    {
                      "internalType": "uint256",
                      "name": "x",
                      "type": "uint256"
                    },
                    {
                      "internalType": "uint256",
                      "name": "y",
                      "type": "uint256"
                    }
                  ],
                  "internalType": "struct Types.G1Point",
                  "name": "w2",
                  "type": "tuple"
                },
                {
                  "components": [
                    {
                      "internalType": "uint256",
                      "name": "x",
                      "type": "uint256"
                    },
                    {
                      "internalType": "uint256",
                      "name": "y",
                      "type": "uint256"
                    }
                  ],
                  "internalType": "struct Types.G1Point",
                  "name": "key",
                  "type": "tuple"
                },
                {
                  "components": [
                    {
                      "internalType": "uint256",
                      "name": "x",
                      "type": "uint256"
                    },
                    {
                      "internalType": "uint256",
                      "name": "y",
                      "type": "uint256"
                    }
                  ],
                  "internalType": "struct Types.G1Point",
                  "name": "mimc_cts",
                  "type": "tuple"
                },
                {
                  "components": [
                    {
                      "internalType": "uint256",
                      "name": "x",
                      "type": "uint256"
                    },
                    {
                      "internalType": "uint256",
                      "name": "y",
                      "type": "uint256"
                    }
                  ],
                  "internalType": "struct Types.G1Point",
                  "name": "quotient",
                  "type": "tuple"
                },
                {
                  "components": [
                    {
                      "internalType": "uint256",
                      "name": "x",
                      "type": "uint256"
                    },
                    {
                      "internalType": "uint256",
                      "name": "y",
                      "type": "uint256"
                    }
                  ],
                  "internalType": "struct Types.G1Point",
                  "name": "u_prime",
                  "type": "tuple"
                },
                {
                  "components": [
                    {
                      "internalType": "uint256",
                      "name": "x",
                      "type": "uint256"
                    },
                    {
                      "internalType": "uint256",
                      "name": "y",
                      "type": "uint256"
                    }
                  ],
                  "internalType": "struct Types.G1Point",
                  "name": "zi",
                  "type": "tuple"
                },
                {
                  "components": [
                    {
                      "internalType": "uint256",
                      "name": "x",
                      "type": "uint256"
                    },
                    {
                      "internalType": "uint256",
                      "name": "y",
                      "type": "uint256"
                    }
                  ],
                  "internalType": "struct Types.G1Point",
                  "name": "ci",
                  "type": "tuple"
                },
                {
                  "components": [
                    {
                      "internalType": "uint256",
                      "name": "x",
                      "type": "uint256"
                    },
                    {
                      "internalType": "uint256",
                      "name": "y",
                      "type": "uint256"
                    }
                  ],
                  "internalType": "struct Types.G1Point",
                  "name": "p1",
                  "type": "tuple"
                },
                {
                  "components": [
                    {
                      "internalType": "uint256",
                      "name": "x",
                      "type": "uint256"
                    },
                    {
                      "internalType": "uint256",
                      "name": "y",
                      "type": "uint256"
                    }
                  ],
                  "internalType": "struct Types.G1Point",
                  "name": "p2",
                  "type": "tuple"
                },
                {
                  "components": [
                    {
                      "internalType": "uint256",
                      "name": "x",
                      "type": "uint256"
                    },
                    {
                      "internalType": "uint256",
                      "name": "y",
                      "type": "uint256"
                    }
                  ],
                  "internalType": "struct Types.G1Point",
                  "name": "q_mimc",
                  "type": "tuple"
                },
                {
                  "components": [
                    {
                      "internalType": "uint256",
                      "name": "x",
                      "type": "uint256"
                    },
                    {
                      "internalType": "uint256",
                      "name": "y",
                      "type": "uint256"
                    }
                  ],
                  "internalType": "struct Types.G1Point",
                  "name": "h",
                  "type": "tuple"
                },
                {
                  "components": [
                    {
                      "internalType": "uint256",
                      "name": "x0",
                      "type": "uint256"
                    },
                    {
                      "internalType": "uint256",
                      "name": "x1",
                      "type": "uint256"
                    },
                    {
                      "internalType": "uint256",
                      "name": "y0",
                      "type": "uint256"
                    },
                    {
                      "internalType": "uint256",
                      "name": "y1",
                      "type": "uint256"
                    }
                  ],
                  "internalType": "struct Types.G2Point",
                  "name": "w",
                  "type": "tuple"
                }
              ],
              "internalType": "struct Types.Commitments",
              "name": "commitments",
              "type": "tuple"
            }
          ],
          "internalType": "struct Types.Proof",
          "name": "_proof",
          "type": "tuple"
        },
        {
          "internalType": "uint256",
          "name": "_nullifierHash",
          "type": "uint256"
        },
        {
          "internalType": "uint256",
          "name": "_externalNullifier",
          "type": "uint256"
        }
      ],
      "name": "broadcastSignal",
      "outputs": [],
      "stateMutability": "nonpayable",
      "type": "function"
    },
    {
      "inputs": [
        {
          "internalType": "uint256",
          "name": "_index",
          "type": "uint256"
        },
        {
          "internalType": "bytes32",
          "name": "_leaf",
          "type": "bytes32"
        },
        {
          "internalType": "bytes32[]",
          "name": "_proof",
          "type": "bytes32[]"
        }
      ],
      "name": "genRootFromPath",
      "outputs": [
        {
          "internalType": "bytes32",
          "name": "",
          "type": "bytes32"
        }
      ],
      "stateMutability": "pure",
      "type": "function"
    },
    {
      "inputs": [],
      "name": "getAccumulator",
      "outputs": [
        {
          "components": [
            {
              "internalType": "uint256",
              "name": "x",
              "type": "uint256"
            },
            {
              "internalType": "uint256",
              "name": "y",
              "type": "uint256"
            }
          ],
          "internalType": "struct Types.G1Point",
          "name": "",
          "type": "tuple"
        }
      ],
      "stateMutability": "view",
      "type": "function"
    },
    {
      "inputs": [],
      "name": "getCurrentIndex",
      "outputs": [
        {
          "internalType": "uint256",
          "name": "",
          "type": "uint256"
        }
      ],
      "stateMutability": "view",
      "type": "function"
    },
    {
      "inputs": [
        {
          "internalType": "uint256",
          "name": "",
          "type": "uint256"
        }
      ],
      "name": "identityCommitmentHistory",
      "outputs": [
        {
          "internalType": "bool",
          "name": "",
          "type": "bool"
        }
      ],
      "stateMutability": "view",
      "type": "function"
    },
    {
      "inputs": [
        {
          "internalType": "uint256",
          "name": "_identityCommitment",
          "type": "uint256"
        },
        {
          "internalType": "uint256",
          "name": "_lagrangeLeafX",
          "type": "uint256"
        },
        {
          "internalType": "uint256",
          "name": "_lagrangeLeafY",
          "type": "uint256"
        },
        {
          "internalType": "bytes32[]",
          "name": "_lagrangeMerkleProof",
          "type": "bytes32[]"
        }
      ],
      "name": "insertIdentity",
      "outputs": [],
      "stateMutability": "nonpayable",
      "type": "function"
    },
    {
      "inputs": [],
      "name": "lagrangeTreeRoot",
      "outputs": [
        {
          "internalType": "bytes32",
          "name": "",
          "type": "bytes32"
        }
      ],
      "stateMutability": "view",
      "type": "function"
    },
    {
      "inputs": [
        {
          "internalType": "uint256",
          "name": "",
          "type": "uint256"
        }
      ],
      "name": "nullifierHashHistory",
      "outputs": [
        {
          "internalType": "bool",
          "name": "",
          "type": "bool"
        }
      ],
      "stateMutability": "view",
      "type": "function"
    },
    {
      "inputs": [
        {
          "components": [
            {
              "components": [
                {
                  "internalType": "uint256",
                  "name": "q1_opening",
                  "type": "uint256"
                },
                {
                  "internalType": "uint256",
                  "name": "q2_opening",
                  "type": "uint256"
                },
                {
                  "internalType": "uint256",
                  "name": "q3_opening",
                  "type": "uint256"
                },
                {
                  "internalType": "uint256",
                  "name": "q4_opening",
                  "type": "uint256"
                },
                {
                  "components": [
                    {
                      "internalType": "uint256",
                      "name": "x",
                      "type": "uint256"
                    },
                    {
                      "internalType": "uint256",
                      "name": "y",
                      "type": "uint256"
                    }
                  ],
                  "internalType": "struct Types.G1Point",
                  "name": "f_cm",
                  "type": "tuple"
                },
                {
                  "components": [
                    {
                      "internalType": "uint256",
                      "name": "x",
                      "type": "uint256"
                    },
                    {
                      "internalType": "uint256",
                      "name": "y",
                      "type": "uint256"
                    }
                  ],
                  "internalType": "struct Types.G1Point",
                  "name": "final_poly_proof",
                  "type": "tuple"
                }
              ],
              "internalType": "struct Types.MultiopenProof",
              "name": "multiopenProof",
              "type": "tuple"
            },
            {
              "components": [
                {
                  "internalType": "uint256",
                  "name": "q_mimc",
                  "type": "uint256"
                },
                {
                  "internalType": "uint256",
                  "name": "mimc_cts",
                  "type": "uint256"
                },
                {
                  "internalType": "uint256",
                  "name": "quotient",
                  "type": "uint256"
                },
                {
                  "internalType": "uint256",
                  "name": "u_prime",
                  "type": "uint256"
                },
                {
                  "internalType": "uint256",
                  "name": "p1",
                  "type": "uint256"
                },
                {
                  "internalType": "uint256",
                  "name": "p2",
                  "type": "uint256"
                },
                {
                  "internalType": "uint256",
                  "name": "w0_0",
                  "type": "uint256"
                },
                {
                  "internalType": "uint256",
                  "name": "w0_1",
                  "type": "uint256"
                },
                {
                  "internalType": "uint256",
                  "name": "w0_2",
                  "type": "uint256"
                },
                {
                  "internalType": "uint256",
                  "name": "w1_0",
                  "type": "uint256"
                },
                {
                  "internalType": "uint256",
                  "name": "w1_1",
                  "type": "uint256"
                },
                {
                  "internalType": "uint256",
                  "name": "w1_2",
                  "type": "uint256"
                },
                {
                  "internalType": "uint256",
                  "name": "w2_0",
                  "type": "uint256"
                },
                {
                  "internalType": "uint256",
                  "name": "w2_1",
                  "type": "uint256"
                },
                {
                  "internalType": "uint256",
                  "name": "w2_2",
                  "type": "uint256"
                },
                {
                  "internalType": "uint256",
                  "name": "key_0",
                  "type": "uint256"
                },
                {
                  "internalType": "uint256",
                  "name": "key_1",
                  "type": "uint256"
                }
              ],
              "internalType": "struct Types.Openings",
              "name": "openings",
              "type": "tuple"
            },
            {
              "components": [
                {
                  "components": [
                    {
                      "internalType": "uint256",
                      "name": "x",
                      "type": "uint256"
                    },
                    {
                      "internalType": "uint256",
                      "name": "y",
                      "type": "uint256"
                    }
                  ],
                  "internalType": "struct Types.G1Point",
                  "name": "w0",
                  "type": "tuple"
                },
                {
                  "components": [
                    {
                      "internalType": "uint256",
                      "name": "x",
                      "type": "uint256"
                    },
                    {
                      "internalType": "uint256",
                      "name": "y",
                      "type": "uint256"
                    }
                  ],
                  "internalType": "struct Types.G1Point",
                  "name": "w1",
                  "type": "tuple"
                },
                {
                  "components": [
                    {
                      "internalType": "uint256",
                      "name": "x",
                      "type": "uint256"
                    },
                    {
                      "internalType": "uint256",
                      "name": "y",
                      "type": "uint256"
                    }
                  ],
                  "internalType": "struct Types.G1Point",
                  "name": "w2",
                  "type": "tuple"
                },
                {
                  "components": [
                    {
                      "internalType": "uint256",
                      "name": "x",
                      "type": "uint256"
                    },
                    {
                      "internalType": "uint256",
                      "name": "y",
                      "type": "uint256"
                    }
                  ],
                  "internalType": "struct Types.G1Point",
                  "name": "key",
                  "type": "tuple"
                },
                {
                  "components": [
                    {
                      "internalType": "uint256",
                      "name": "x",
                      "type": "uint256"
                    },
                    {
                      "internalType": "uint256",
                      "name": "y",
                      "type": "uint256"
                    }
                  ],
                  "internalType": "struct Types.G1Point",
                  "name": "mimc_cts",
                  "type": "tuple"
                },
                {
                  "components": [
                    {
                      "internalType": "uint256",
                      "name": "x",
                      "type": "uint256"
                    },
                    {
                      "internalType": "uint256",
                      "name": "y",
                      "type": "uint256"
                    }
                  ],
                  "internalType": "struct Types.G1Point",
                  "name": "quotient",
                  "type": "tuple"
                },
                {
                  "components": [
                    {
                      "internalType": "uint256",
                      "name": "x",
                      "type": "uint256"
                    },
                    {
                      "internalType": "uint256",
                      "name": "y",
                      "type": "uint256"
                    }
                  ],
                  "internalType": "struct Types.G1Point",
                  "name": "u_prime",
                  "type": "tuple"
                },
                {
                  "components": [
                    {
                      "internalType": "uint256",
                      "name": "x",
                      "type": "uint256"
                    },
                    {
                      "internalType": "uint256",
                      "name": "y",
                      "type": "uint256"
                    }
                  ],
                  "internalType": "struct Types.G1Point",
                  "name": "zi",
                  "type": "tuple"
                },
                {
                  "components": [
                    {
                      "internalType": "uint256",
                      "name": "x",
                      "type": "uint256"
                    },
                    {
                      "internalType": "uint256",
                      "name": "y",
                      "type": "uint256"
                    }
                  ],
                  "internalType": "struct Types.G1Point",
                  "name": "ci",
                  "type": "tuple"
                },
                {
                  "components": [
                    {
                      "internalType": "uint256",
                      "name": "x",
                      "type": "uint256"
                    },
                    {
                      "internalType": "uint256",
                      "name": "y",
                      "type": "uint256"
                    }
                  ],
                  "internalType": "struct Types.G1Point",
                  "name": "p1",
                  "type": "tuple"
                },
                {
                  "components": [
                    {
                      "internalType": "uint256",
                      "name": "x",
                      "type": "uint256"
                    },
                    {
                      "internalType": "uint256",
                      "name": "y",
                      "type": "uint256"
                    }
                  ],
                  "internalType": "struct Types.G1Point",
                  "name": "p2",
                  "type": "tuple"
                },
                {
                  "components": [
                    {
                      "internalType": "uint256",
                      "name": "x",
                      "type": "uint256"
                    },
                    {
                      "internalType": "uint256",
                      "name": "y",
                      "type": "uint256"
                    }
                  ],
                  "internalType": "struct Types.G1Point",
                  "name": "q_mimc",
                  "type": "tuple"
                },
                {
                  "components": [
                    {
                      "internalType": "uint256",
                      "name": "x",
                      "type": "uint256"
                    },
                    {
                      "internalType": "uint256",
                      "name": "y",
                      "type": "uint256"
                    }
                  ],
                  "internalType": "struct Types.G1Point",
                  "name": "h",
                  "type": "tuple"
                },
                {
                  "components": [
                    {
                      "internalType": "uint256",
                      "name": "x0",
                      "type": "uint256"
                    },
                    {
                      "internalType": "uint256",
                      "name": "x1",
                      "type": "uint256"
                    },
                    {
                      "internalType": "uint256",
                      "name": "y0",
                      "type": "uint256"
                    },
                    {
                      "internalType": "uint256",
                      "name": "y1",
                      "type": "uint256"
                    }
                  ],
                  "internalType": "struct Types.G2Point",
                  "name": "w",
                  "type": "tuple"
                }
              ],
              "internalType": "struct Types.Commitments",
              "name": "commitments",
              "type": "tuple"
            }
          ],
          "internalType": "struct Types.Proof",
          "name": "proof",
          "type": "tuple"
        },
        {
          "components": [
            {
              "internalType": "uint256",
              "name": "x",
              "type": "uint256"
            },
            {
              "internalType": "uint256",
              "name": "y",
              "type": "uint256"
            }
          ],
          "internalType": "struct Types.G1Point",
          "name": "accumulator",
          "type": "tuple"
        },
        {
          "internalType": "uint256[3]",
          "name": "publicInputs",
          "type": "uint256[3]"
        }
      ],
      "name": "verify",
      "outputs": [
        {
          "internalType": "bool",
          "name": "",
          "type": "bool"
        }
      ],
      "stateMutability": "view",
      "type": "function"
    }
  ],
  "bytecode": {
    "object": "0x6853656d616361756c6b60b81b60a052600960805260a9604052620000657f30644e72e131a029b85045b68181585d2833e84879b9709143e1f593f00000017f804050588f69e25f5fbecd1380a44a9ed58106da09f470b088355b0f7c671a27620000bd565b6004553480156200007557600080fd5b5060405162002ad438038062002ad48339810160408190526200009891620000e0565b600092909255604080518082019091528181526020018290526002556003556200010f565b600082620000db57634e487b7160e01b600052601260045260246000fd5b500690565b600080600060608486031215620000f657600080fd5b8351925060208401519150604084015190509250925092565b6129b5806200011f6000396000f3fe608060405234801561001057600080fd5b50600436106100935760003560e01c8063b3da592b11610066578063b3da592b1461010a578063c4cd55961461011d578063cec677b814610140578063f2524d9614610153578063ff40807b1461015c57600080fd5b80630d9005ae1461009857806326e738a2146100af5780637a6a061d146100c457806398ac1f81146100f7575b600080fd5b6001545b6040519081526020015b60405180910390f35b6100c26100bd366004612612565b61019a565b005b6100e76100d23660046126cc565b60066020526000908152604090205460ff1681565b60405190151581526020016100a6565b6100c2610105366004612765565b61029a565b6100e76101183660046127bf565b610409565b6100e761012b3660046126cc565b60056020526000908152604090205460ff1681565b61009c61014e366004612866565b610867565b61009c60005481565b6040805180820182526000808252602091820152815180830183526002548082526003549183019182528351908152905191810191909152016100a6565b60008281526005602052604090205460ff16156101d157604051621d262360e11b8152600481018390526024015b60405180910390fd5b8351602085012060081c6101e3612011565b8281526020810184905260408101829052600061022e866102286040805180820182526000808252602091820152815180830190925260025482526003549082015290565b84610409565b90508061024e576040516309bde33960e01b815260040160405180910390fd5b600085815260056020526040808220805460ff1916600117905551859185917f8147c22f317f8c99f840af736ce6f9cb078c49c2378097fd42202a9efbbeed109190a350505050505050565b6000805160206129608339815191528411806102b7575060045484145b156102d85760405163f2c27cc160e01b8152600481018590526024016101c8565b600154604080516020808201879052818301869052825180830384018152606090920190925280519101206000610310838386610867565b90506000548114610337576040516339c4520b60e11b8152600481018290526024016101c8565b6000805160206129608339815191526000816103546001846128f8565b6004540990506000828061036a5761036a6128cc565b828b08604080518082019091528a8152602081018a905290915060006103908284610918565b60408051808201909152600254815260035460208201529091506103b490826109c4565b8051600255602001516003556103cb88600161290b565b6001556040518c9089907f8702906097e936d09eb559ef170474b37e9aa31ede997a4c1cc4ce8c8d9babf890600090a3505050505050505050505050565b805160009060008051602061296083398151915290811161042957600080fd5b60208301516000805160206129608339815191521161044757600080fd5b60408301516000805160206129608339815191521161046557600080fd5b600061049d604080516060808201835281526000602080830182905282840182905283516104e0810190945280845283015290815290565b90506104e760405180610100016040528060008152602001600081526020016000815260200160008152602001600081526020016000815260200160008152602001600081525090565b6104ef61202f565b6104fa838988610a7e565b61050383610b41565b825261050f8389610b6d565b61051883610b41565b5061052283610b41565b6020838101919091526040808a0180516101a0015186518051608080820183528387015191909201808701919091528251818601526060808401519082015291840151910152516101800151855180518084018252825191018085019190915292015191015261059183610b41565b60408301526105a08389610c2e565b6105a983610b41565b60608301526105b783610b41565b60808301526105e8838951608001519051805160408082018352835191909201602081810192909252920151910152565b6105f183610b41565b60a08301526105ff83610b41565b60c083015261060d83610b41565b60e083015261061a61219e565b60408301517f16e73dfdad310991df5ce19ce85943e01dcb5564b6f24c799d0e470cba9d1811907f1332cb377d53b9c681afa4dc09f66bc37e3f2f33deb33d9b40bd245c971b24479087818409925087818309915050846040015160000361068e576106876001886128f8565b83526106a2565b6001856040015161069f91906128f8565b83525b604085015160a086015160208d015160600151898181038308905089838b0383088a868c0384088b868d03850893508b878d0386088c878e03870895508c878e038908826103e08c0152836104008c0152856104208c01528460208b01528360408b01528260608b01528560808b01528160a08b01528660c08b01528060e08b015250505050505050505061073681610df4565b9050600080610783856040015184600060088110610756576107566128b6565b602002015160077f300385d5fb6f3ce964dfa52b147e55ac6de38077e8c5fdb0215a31a8c8200001610faa565b915091508251606085015260208301516080850152604083015160a0850152606083015160c0850152608083015160e085015260a083015161010085015260c083015161012085015260e083015161014085015281610160850152806101808501526107f58b8587600001518c61101c565b6108415760405162461bcd60e51b815260206004820152601b60248201527f56657269666965723a206761746520636865636b206661696c6564000000000060448201526064016101c8565b505061084e898385611213565b61085a8983858b611b04565b9998505050505050505050565b60008083815b845181101561090e5761088160028861291e565b925061088e600288612932565b9650826000036108cc576108c5828683815181106108ae576108ae6128b6565b602002602001015160009182526020526040902090565b91506108fc565b6108f98582815181106108e1576108e16128b6565b60200260200101518360009182526020526040902090565b91505b8061090681612946565b91505061086d565b5095945050505050565b6040805180820190915260008082526020820152610934612011565b8351815260208085015181830152604080830185905280518082018252600080825292810183905291908260608560076107d05a03fa9050808061097757600080fd5b50806109b95760405162461bcd60e51b815260206004820152601160248201527010938c8d4d0e881b5d5b0819985a5b1959607a1b60448201526064016101c8565b509150505b92915050565b6040805180820190915260008082526020820152604080518082019091526000808252602082015260006109f66121bd565b855181526020808701518183015285516040808401919091529086015160608301528360808360066107d05a03fa91508180610a3157600080fd5b5081610a745760405162461bcd60e51b815260206004820152601260248201527110938c8d4d0e881c1b1d5cc819985a5b195960721b60448201526064016101c8565b5090949350505050565b610a9c838260005b6020020151905180516020808201835291010152565b610aa883826001610a86565b610ab483826002610a86565b50604090810180515183518051808501825282516020919092018181019290925291820151908401528151606001518451805180860182528251910180840191909152908201519084015281518101518451805180860182528251910180840191909152908201519084015290518201519251805180840182528451910180830191909152920151910152565b805180516020808301918220938101849052909152819052600080516020612960833981519152900690565b610b9c82826040015160a001519051805160408082018352835191909201602081810192909252920151910152565b610bcb82826040015160e001519051805160408082018352835191909201602081810192909252920151910152565b610bfb82826040015161010001519051805160408082018352835191909201602081810192909252920151910152565b610c2a82826040015160c001519051805160408082018352835191909201602081810192909252920151910152565b5050565b610c4c82826020015160c00151905180516020808201835291010152565b610c6a82826020015160e00151905180516020808201835291010152565b610c898282602001516101000151905180516020808201835291010152565b610ca88282602001516101200151905180516020808201835291010152565b610cc78282602001516101400151905180516020808201835291010152565b610ce68282602001516101600151905180516020808201835291010152565b610d058282602001516101800151905180516020808201835291010152565b610d248282602001516101a00151905180516020808201835291010152565b610d438282602001516101c00151905180516020808201835291010152565b610d628282602001516101e00151905180516020808201835291010152565b610d818282602001516102000151905180516020808201835291010152565b6020908101805151835180518085018252018301528051820151835180518085018252018301528051604001518351805180850182520183015280516060015183518051808501825201830152805160800151835180518085018252018301525160a00151915180518083018252010152565b610dfc61219e565b610e0461219e565b600060008051602061296083398151915290506040518451602086015183818309835250600190505b6008811015610e5d5760208102602081018701516020820384015185818309928501929092525050600101610e2d565b5060c081015180610e6d57600080fd5b50602060e08201526020610100820152602061012082015260c081015161014082015260028203610160820152816101808201526020610280820160c060e0840160055afa8080610ebd57600080fd5b505060005b6008811015610efd578060070360208102870151602082026101a00191508184015185818309928501601f1901929092525050600101610ec2565b508185516101c0830151096102a082015260025b6008811015610f4e5760208181028381016101a0015160011984019092028401519091908581830992850161028001929092525050600101610f11565b506101a081015183526102a081015160208401526102c081015160408401526102e08101516060840152610300810151608084015261032081015160a084015261034081015160c0840152610360015160e08301525092915050565b600060008051602061296083398151915280808715610fe45787925060005b86811015610fdf57828485099350600101610fc9565b508790505b610fef6001846128f8565b925081876001830309806001811461100657600080fd5b5050818783878609099350505094509492505050565b60006000805160206129608339815191528180611051565b600082828309838182098481830991505083838209949350505050565b856020890151610180890151604082015186818309955050508051602082015160c083015160e084015188838308925061108b8984611034565b925088818a038408925050508682820990508094505050805160208201516101208301516101408401516101e085015189848b838608089350506110cf8984611034565b925088818a038408925050508682820990508687828609860894505050848883099150805160208201516101e08301516101808401516101a085015189848b85850808935061111e8a85611034565b935089818b0385089350505050868282099050868782860986089450505084888309915080516101e0820151610200830151878189038308905087838209905087888287098708955050868a8509935060c083015191506101008301516101608c015188898386088a0384089350888185099350888985880988089650888c8709955061018085015193506101c0850151915060208b01518b518a85860894508a84870893508a85850893508a848c03830894508a83860994508a8b868a098a0898508a8e890997508a818c0387089550505088818509935050505085868285098508949094149a9950505050505050505050565b6000600080516020612960833981519152905060006060830151608084015160c0850151848384098584820986858209826101a08b0152816101c08b0152806101e08b015287858609888682096102008c01919091526102208b01528784800988858209898682099550816102408d0152806102608d01525050836102808b015260408b015193506000806040516101008751015181526101208751015160208201528860408201526040600060608360076107d05a03fa995060005160205160405192506101408951015183526101608951015160208401528760408401526040600060608560076107d05a03fa8c169b5060405192508183528060208401525050600051604082015260205160608201526040600060808360066107d05a03fa8a1699506000519250602051915060405190506101808751015181526101a08751015160208201528460408201526040600060608360076107d05a03fa8a1699506040519050828152816020820152600051604082015260205160608201526040600060808360066107d05a03fa8a1699506000519250602051915060405190506102808751015181526102a08751015160208201528360408201526040600060608360076107d05a03fa8a1699506040519050828152816020820152600051604082015260205160608201526040600060808360066107d05a03fa8a1699506000519250602051915060405190508281528160208201526102c08751015160408201526102e08751015160608201526040600060808360066107d05a03fa8a1699505050506000516102a08b01515260205160206102a08c0151015260208b015160208101516040820151606083015160a08401518c8b850993508c8d848a09850893508c8d838909850893508c8d8288098508935050505089825182089050806103408d015250505050600080604051604085510151815260608551015160208201528660408201526040600060608360076107d05a03fa88169750600051925060205191506040519050608085510151815260a08551015160208201528360408201526040600060608360076107d05a03fa881697506040519050828152816020820152600051604082015260205160608201526040600060808360066107d05a03fa88169750604051905060005181526020516020820152845151604082015260208551015160608201526040600060808360066107d05a03fa881697505050506000516102c08901515260205160206102c08a0151015260208901516115dc565b60008685840987878609888183089150508781840898975050505050505050565b60c08101516101208201516101808301516115fb8a868a8486886115bb565b6102e08d015250505060e08101516101408201516101a08301516116238a868a8486886115bb565b6103008d01525050506101008101516101608201516101c0909201519161164e8985898685876115bb565b6103208c015250505050602088015188518051608092830151928a015192955090918781818881038508096103608b015250506020015161034088015160a08901519194509086818184810388080994505050826103808801526020880151925087516040810151905060a088015160c08901516103e08a01516101008b01518981830991506104008c0151818b0391508a8282099050816104408e01526101e0890151915061020089015198508a8b828b098c85850908985050505087818309915050806104608a0152868188878a038508096103a08a0152505087516103e08801516104208901516101008a01516101208b01519396509192909190888385098983820990508982820990506104008c015192506104408c015191506101408c01518a85850994508a83860994508a8186099450506101208c01518a0391506101408c01518a038a86850995508a83870995508a8187099550506102e08c015192506103008c015191506103208c01518a82850993508a8b868509850893508a8b878309850893505050506104608a0151925060e08a0151915087828409925060608601519550878389838b038908096103c08b015250506040805183516102400151815283516102600151602082015260c08901518183015260009550859250908260608360076107d05a03fa95506000519450602051915060405190506102a089015151815260206102a08a01510151602082015261024089015160408201526040600060608360076107d05a03fa95506040519050600051815260205160208201528460408201528160608201526040600060808360066107d05a03fa8616955060005194506020519150604051905060c083510151815260e083510151602082015261026089015160408201526040600060608360076107d05a03fa95506040519050600051815260205160208201528460408201528160608201526040600060808360066107d05a03fa861695506000519450602051915060405190506102c089015151815260206102c08a01510151602082015261028089015160408201526040600060608360076107d05a03fa95506040519050600051815260205160208201528460408201528160608201526040600060808360066107d05a03fa86169550600051945060205191508951604051915060808101515182526020608082015101516020830152508460408201528160608201526040600060808360066107d05a03fa8616955050506000516104a08801515260205160206104a089015101525061020086015191506102208601516103608701518586846103808b015109820890508586856103a08b015109820890508586836103c08b015109820890508061048089015288519350858660c08901518651098208915050848561024089015160208601510982089050848561026089015160408601510982089050848561028089015160608601510982086104c0880152508280611a9657600080fd5b50505080611afd5760405162461bcd60e51b815260206004820152602e60248201527f56657269666965723a206661696c656420746f20636f6d707574652066696e6160448201526d1b081c1bdb1e481bdc88195d985b60921b60648201526084016101c8565b5050505050565b600080611b2283611b1d88604001516101000151611d7f565b6109c4565b90506000611bd6611bcc60405180604001604052807f195b22e5a84c5d5a70e8faea64db9bfe8eb57577cfeb3a7798f5470c60b99bed81526020017f15d250af555dc3dbf386c1bbdd00d9ab2b6908120041bc75f496a6fbe051a494815250611b1d60408051808201825260008082526020918201528151808301909252600182527f30644e72e131a029b85045b68181585d97816a916871ca8d3c208c16d87cfd459082015290565b8660200151610918565b90506000611c50611c46611c3b611bf98b6000015160a001518a60a00151610918565b611b1d611c36611c2b604080518082018252600080825260209182015281518083019092526001825260029082015290565b8d6104c00151610918565b611d7f565b896104a001516109c4565b8760e00151610918565b90506000611c67611c6185856109c4565b836109c4565b90506000611c73611e1f565b90506000611c888b6040015160e00151611d7f565b905060008b604001516101a0015190506000611cb8611cae8e6000015160a00151611d7f565b8c60e00151610918565b9050600060405180608001604052807f26186a2d65ee4d2f9c9a5b91f86597d35f192cd120caf7e935d8443d1938e23d81526020017f30441fd1b5d3370482c42152a8899027716989a6996c2535bc9f7fee8aaef79e81526020017f1970ea81dd6992adfbc571effb03503adbbb6a857f578403c6c40e22d65b3c0281526020017f054793348f12c0cf5622c340573cb277586319de359ab9389778f689786b1e488152509050611d6d868686868686611ef0565b9e9d5050505050505050505050505050565b60408051808201909152600080825260208201528151158015611da457506020820151155b15611dc2575050604080518082019091526000808252602082015290565b60007f30644e72e131a029b85045b68181585d97816a916871ca8d3c208c16d87cfd479050604051806040016040528084600001518152602001828560200151611e0c919061291e565b611e1690846128f8565b90529392505050565b611e4a6040518060800160405280600081526020016000815260200160008152602001600081525090565b60405180608001604052807f198e9393920d483a7260bfb731fb5d25f1aa493335a9e71297e485b7aef312c281526020017f1800deef121f1e76426a00665e5c4479674322d4f75edadd46debd5cd992f6ed81526020017f090689d0585ff075ec9e99ad690c3395bc4b313370b38ef355acdadcd122975b81526020017f12c85ea5db8c6deb4aab71808dcb408fe3d1e7690c43d37b4ce6cc0166fa7daa815250905090565b60008060006040518951815260208a01516020820152885160408201526020890151606082015260408901516080820152606089015160a0820152875160c0820152602088015160e08201528651610100820152602087015161012082015260408701516101408201526060870151610160820152855161018082015260208601516101a082015284516101c082015260208501516101e082015260408501516102008201526060850151610220820152602060006102408360085afa9150506000519150806120025760405162461bcd60e51b815260206004820152601c60248201527f424e3235343a2070616972696e6720636865636b206661696c6564210000000060448201526064016101c8565b50600114979650505050505050565b60405180606001604052806003906020820280368337509192915050565b604051806104e001604052806000815260200160008152602001600081526020016000815260200160008152602001600081526020016000815260200160008152602001600081526020016000815260200160008152602001600081526020016000815260200160008152602001600081526020016000815260200160008152602001600081526020016000815260200160008152602001600081526020016120eb604051806040016040528060008152602001600081525090565b815260200161210d604051806040016040528060008152602001600081525090565b81526020016000815260200160008152602001600081526020016000815260200160008152602001600081526020016000815260200160008152602001600081526020016000815260200160008152602001600081526020016000815260200160008152602001612191604051806040016040528060008152602001600081525090565b8152602001600081525090565b6040518061010001604052806008906020820280368337509192915050565b60405180608001604052806004906020820280368337509192915050565b634e487b7160e01b600052604160045260246000fd5b604051610220810167ffffffffffffffff81118282101715612215576122156121db565b60405290565b6040516101c0810167ffffffffffffffff81118282101715612215576122156121db565b6040516060810167ffffffffffffffff81118282101715612215576122156121db565b60405160c0810167ffffffffffffffff81118282101715612215576122156121db565b604051601f8201601f1916810167ffffffffffffffff811182821017156122ae576122ae6121db565b604052919050565b6000604082840312156122c857600080fd5b6040516040810181811067ffffffffffffffff821117156122eb576122eb6121db565b604052823581526020928301359281019290925250919050565b6000610220828403121561231857600080fd5b6123206121f1565b823581526020808401359082015260408084013590820152606080840135908201526080808401359082015260a0808401359082015260c0808401359082015260e08084013590820152610100808401359082015261012080840135908201526101408084013590820152610160808401359082015261018080840135908201526101a080840135908201526101c080840135908201526101e08084013590820152610200928301359281019290925250919050565b6000608082840312156123e857600080fd5b6040516080810181811067ffffffffffffffff8211171561240b5761240b6121db565b8060405250809150823581526020830135602082015260408301356040820152606083013560608201525092915050565b60006103c0828403121561244f57600080fd5b61245761221b565b905061246383836122b6565b815261247283604084016122b6565b602082015261248483608084016122b6565b60408201526124968360c084016122b6565b60608201526101006124aa848285016122b6565b60808301526101406124be858286016122b6565b60a08401526101806124d2868287016122b6565b60c08501526124e5866101c087016122b6565b60e08501526124f88661020087016122b6565b8385015261250a8661024087016122b6565b61012085015261251e8661028087016122b6565b82850152612530866102c087016122b6565b6101608501526125448661030087016122b6565b818501525050506125598361034084016123d6565b6101a082015292915050565b60008183036106e081121561257957600080fd5b61258161223f565b91506101008082121561259357600080fd5b61259b612262565b9150833582526020840135602083015260408401356040830152606084013560608301526125cc85608086016122b6565b60808301526125de8560c086016122b6565b60a08301528183526125f285828601612305565b6020840152505061260783610320840161243c565b604082015292915050565b600080600080610740858703121561262957600080fd5b843567ffffffffffffffff8082111561264157600080fd5b818701915087601f83011261265557600080fd5b8135602082821115612669576126696121db565b61267b601f8301601f19168201612285565b9250818352898183860101111561269157600080fd5b818185018285013760008183850101528297506126b08a828b01612565565b979a979950505050610700860135956107200135949350505050565b6000602082840312156126de57600080fd5b5035919050565b600082601f8301126126f657600080fd5b8135602067ffffffffffffffff821115612712576127126121db565b8160051b612721828201612285565b928352848101820192828101908785111561273b57600080fd5b83870192505b8483101561275a57823582529183019190830190612741565b979650505050505050565b6000806000806080858703121561277b57600080fd5b843593506020850135925060408501359150606085013567ffffffffffffffff8111156127a757600080fd5b6127b3878288016126e5565b91505092959194509250565b60008060006107808085870312156127d657600080fd5b6127e08686612565565b93506127f0866106e087016122b6565b92508561073f86011261280257600080fd5b6040516060810181811067ffffffffffffffff82111715612825576128256121db565b60405290850190808783111561283a57600080fd5b61072087015b83811015612858578035825260209182019101612840565b505080925050509250925092565b60008060006060848603121561287b57600080fd5b8335925060208401359150604084013567ffffffffffffffff8111156128a057600080fd5b6128ac868287016126e5565b9150509250925092565b634e487b7160e01b600052603260045260246000fd5b634e487b7160e01b600052601260045260246000fd5b634e487b7160e01b600052601160045260246000fd5b818103818111156109be576109be6128e2565b808201808211156109be576109be6128e2565b60008261292d5761292d6128cc565b500690565b600082612941576129416128cc565b500490565b600060018201612958576129586128e2565b506001019056fe30644e72e131a029b85045b68181585d2833e84879b9709143e1f593f0000001a264697066735822122004979f650a573ee3c2ffda764b8554ae3d5aa392a25e9257e340c07f6f59dfca64736f6c63430008110033",
    "linkReferences": {}
  },
  "methodIdentifiers": {
    "broadcastSignal(bytes,((uint256,uint256,uint256,uint256,(uint256,uint256),(uint256,uint256)),(uint256,uint256,uint256,uint256,uint256,uint256,uint256,uint256,uint256,uint256,uint256,uint256,uint256,uint256,uint256,uint256,uint256),((uint256,uint256),(uint256,uint256),(uint256,uint256),(uint256,uint256),(uint256,uint256),(uint256,uint256),(uint256,uint256),(uint256,uint256),(uint256,uint256),(uint256,uint256),(uint256,uint256),(uint256,uint256),(uint256,uint256),(uint256,uint256,uint256,uint256))),uint256,uint256)": "26e738a2",
    "genRootFromPath(uint256,bytes32,bytes32[])": "cec677b8",
    "getAccumulator()": "ff40807b",
    "getCurrentIndex()": "0d9005ae",
    "identityCommitmentHistory(uint256)": "7a6a061d",
    "insertIdentity(uint256,uint256,uint256,bytes32[])": "98ac1f81",
    "lagrangeTreeRoot()": "f2524d96",
    "nullifierHashHistory(uint256)": "c4cd5596",
    "verify(((uint256,uint256,uint256,uint256,(uint256,uint256),(uint256,uint256)),(uint256,uint256,uint256,uint256,uint256,uint256,uint256,uint256,uint256,uint256,uint256,uint256,uint256,uint256,uint256,uint256,uint256),((uint256,uint256),(uint256,uint256),(uint256,uint256),(uint256,uint256),(uint256,uint256),(uint256,uint256),(uint256,uint256),(uint256,uint256),(uint256,uint256),(uint256,uint256),(uint256,uint256),(uint256,uint256),(uint256,uint256),(uint256,uint256,uint256,uint256))),(uint256,uint256),uint256[3])": "b3da592b"
  },
  "id": 20
}