{
  "abi": [
    {
      "inputs": [
        {
          "components": [
            {
              "components": [
                {
                  "internalType": "uint256",
                  "name": "q1_opening",
                  "type": "uint256"
                },
                {
                  "internalType": "uint256",
                  "name": "q2_opening",
                  "type": "uint256"
                },
                {
                  "internalType": "uint256",
                  "name": "q3_opening",
                  "type": "uint256"
                },
                {
                  "internalType": "uint256",
                  "name": "q4_opening",
                  "type": "uint256"
                },
                {
                  "components": [
                    {
                      "internalType": "uint256",
                      "name": "x",
                      "type": "uint256"
                    },
                    {
                      "internalType": "uint256",
                      "name": "y",
                      "type": "uint256"
                    }
                  ],
                  "internalType": "struct Types.G1Point",
                  "name": "f_cm",
                  "type": "tuple"
                },
                {
                  "components": [
                    {
                      "internalType": "uint256",
                      "name": "x",
                      "type": "uint256"
                    },
                    {
                      "internalType": "uint256",
                      "name": "y",
                      "type": "uint256"
                    }
                  ],
                  "internalType": "struct Types.G1Point",
                  "name": "final_poly_proof",
                  "type": "tuple"
                }
              ],
              "internalType": "struct Types.MultiopenProof",
              "name": "multiopenProof",
              "type": "tuple"
            },
            {
              "components": [
                {
                  "internalType": "uint256",
                  "name": "q_mimc",
                  "type": "uint256"
                },
                {
                  "internalType": "uint256",
                  "name": "mimc_cts",
                  "type": "uint256"
                },
                {
                  "internalType": "uint256",
                  "name": "quotient",
                  "type": "uint256"
                },
                {
                  "internalType": "uint256",
                  "name": "u_prime",
                  "type": "uint256"
                },
                {
                  "internalType": "uint256",
                  "name": "p1",
                  "type": "uint256"
                },
                {
                  "internalType": "uint256",
                  "name": "p2",
                  "type": "uint256"
                },
                {
                  "internalType": "uint256",
                  "name": "w0_0",
                  "type": "uint256"
                },
                {
                  "internalType": "uint256",
                  "name": "w0_1",
                  "type": "uint256"
                },
                {
                  "internalType": "uint256",
                  "name": "w0_2",
                  "type": "uint256"
                },
                {
                  "internalType": "uint256",
                  "name": "w1_0",
                  "type": "uint256"
                },
                {
                  "internalType": "uint256",
                  "name": "w1_1",
                  "type": "uint256"
                },
                {
                  "internalType": "uint256",
                  "name": "w1_2",
                  "type": "uint256"
                },
                {
                  "internalType": "uint256",
                  "name": "w2_0",
                  "type": "uint256"
                },
                {
                  "internalType": "uint256",
                  "name": "w2_1",
                  "type": "uint256"
                },
                {
                  "internalType": "uint256",
                  "name": "w2_2",
                  "type": "uint256"
                },
                {
                  "internalType": "uint256",
                  "name": "key_0",
                  "type": "uint256"
                },
                {
                  "internalType": "uint256",
                  "name": "key_1",
                  "type": "uint256"
                }
              ],
              "internalType": "struct Types.Openings",
              "name": "openings",
              "type": "tuple"
            },
            {
              "components": [
                {
                  "components": [
                    {
                      "internalType": "uint256",
                      "name": "x",
                      "type": "uint256"
                    },
                    {
                      "internalType": "uint256",
                      "name": "y",
                      "type": "uint256"
                    }
                  ],
                  "internalType": "struct Types.G1Point",
                  "name": "w0",
                  "type": "tuple"
                },
                {
                  "components": [
                    {
                      "internalType": "uint256",
                      "name": "x",
                      "type": "uint256"
                    },
                    {
                      "internalType": "uint256",
                      "name": "y",
                      "type": "uint256"
                    }
                  ],
                  "internalType": "struct Types.G1Point",
                  "name": "w1",
                  "type": "tuple"
                },
                {
                  "components": [
                    {
                      "internalType": "uint256",
                      "name": "x",
                      "type": "uint256"
                    },
                    {
                      "internalType": "uint256",
                      "name": "y",
                      "type": "uint256"
                    }
                  ],
                  "internalType": "struct Types.G1Point",
                  "name": "w2",
                  "type": "tuple"
                },
                {
                  "components": [
                    {
                      "internalType": "uint256",
                      "name": "x",
                      "type": "uint256"
                    },
                    {
                      "internalType": "uint256",
                      "name": "y",
                      "type": "uint256"
                    }
                  ],
                  "internalType": "struct Types.G1Point",
                  "name": "key",
                  "type": "tuple"
                },
                {
                  "components": [
                    {
                      "internalType": "uint256",
                      "name": "x",
                      "type": "uint256"
                    },
                    {
                      "internalType": "uint256",
                      "name": "y",
                      "type": "uint256"
                    }
                  ],
                  "internalType": "struct Types.G1Point",
                  "name": "mimc_cts",
                  "type": "tuple"
                },
                {
                  "components": [
                    {
                      "internalType": "uint256",
                      "name": "x",
                      "type": "uint256"
                    },
                    {
                      "internalType": "uint256",
                      "name": "y",
                      "type": "uint256"
                    }
                  ],
                  "internalType": "struct Types.G1Point",
                  "name": "quotient",
                  "type": "tuple"
                },
                {
                  "components": [
                    {
                      "internalType": "uint256",
                      "name": "x",
                      "type": "uint256"
                    },
                    {
                      "internalType": "uint256",
                      "name": "y",
                      "type": "uint256"
                    }
                  ],
                  "internalType": "struct Types.G1Point",
                  "name": "u_prime",
                  "type": "tuple"
                },
                {
                  "components": [
                    {
                      "internalType": "uint256",
                      "name": "x",
                      "type": "uint256"
                    },
                    {
                      "internalType": "uint256",
                      "name": "y",
                      "type": "uint256"
                    }
                  ],
                  "internalType": "struct Types.G1Point",
                  "name": "zi",
                  "type": "tuple"
                },
                {
                  "components": [
                    {
                      "internalType": "uint256",
                      "name": "x",
                      "type": "uint256"
                    },
                    {
                      "internalType": "uint256",
                      "name": "y",
                      "type": "uint256"
                    }
                  ],
                  "internalType": "struct Types.G1Point",
                  "name": "ci",
                  "type": "tuple"
                },
                {
                  "components": [
                    {
                      "internalType": "uint256",
                      "name": "x",
                      "type": "uint256"
                    },
                    {
                      "internalType": "uint256",
                      "name": "y",
                      "type": "uint256"
                    }
                  ],
                  "internalType": "struct Types.G1Point",
                  "name": "p1",
                  "type": "tuple"
                },
                {
                  "components": [
                    {
                      "internalType": "uint256",
                      "name": "x",
                      "type": "uint256"
                    },
                    {
                      "internalType": "uint256",
                      "name": "y",
                      "type": "uint256"
                    }
                  ],
                  "internalType": "struct Types.G1Point",
                  "name": "p2",
                  "type": "tuple"
                },
                {
                  "components": [
                    {
                      "internalType": "uint256",
                      "name": "x",
                      "type": "uint256"
                    },
                    {
                      "internalType": "uint256",
                      "name": "y",
                      "type": "uint256"
                    }
                  ],
                  "internalType": "struct Types.G1Point",
                  "name": "q_mimc",
                  "type": "tuple"
                },
                {
                  "components": [
                    {
                      "internalType": "uint256",
                      "name": "x",
                      "type": "uint256"
                    },
                    {
                      "internalType": "uint256",
                      "name": "y",
                      "type": "uint256"
                    }
                  ],
                  "internalType": "struct Types.G1Point",
                  "name": "h",
                  "type": "tuple"
                },
                {
                  "components": [
                    {
                      "internalType": "uint256",
                      "name": "x0",
                      "type": "uint256"
                    },
                    {
                      "internalType": "uint256",
                      "name": "x1",
                      "type": "uint256"
                    },
                    {
                      "internalType": "uint256",
                      "name": "y0",
                      "type": "uint256"
                    },
                    {
                      "internalType": "uint256",
                      "name": "y1",
                      "type": "uint256"
                    }
                  ],
                  "internalType": "struct Types.G2Point",
                  "name": "w",
                  "type": "tuple"
                }
              ],
              "internalType": "struct Types.Commitments",
              "name": "commitments",
              "type": "tuple"
            }
          ],
          "internalType": "struct Types.Proof",
          "name": "proof",
          "type": "tuple"
        },
        {
          "components": [
            {
              "internalType": "uint256",
              "name": "x",
              "type": "uint256"
            },
            {
              "internalType": "uint256",
              "name": "y",
              "type": "uint256"
            }
          ],
          "internalType": "struct Types.G1Point",
          "name": "accumulator",
          "type": "tuple"
        },
        {
          "internalType": "uint256[3]",
          "name": "publicInputs",
          "type": "uint256[3]"
        }
      ],
      "name": "verify",
      "outputs": [
        {
          "internalType": "bool",
          "name": "",
          "type": "bool"
        }
      ],
      "stateMutability": "view",
      "type": "function"
    }
  ],
  "bytecode": {
    "object": "0x608060405234801561001057600080fd5b506122d3806100206000396000f3fe608060405234801561001057600080fd5b506004361061002b5760003560e01c8063b3da592b14610030575b600080fd5b61004361003e366004612144565b610057565b604051901515815260200160405180910390f35b805160009060008051602061227e83398151915290811161007757600080fd5b602083015160008051602061227e8339815191521161009557600080fd5b604083015160008051602061227e833981519152116100b357600080fd5b60006100eb604080516060808201835281526000602080830182905282840182905283516104e0810190945280845283015290815290565b905061013560405180610100016040528060008152602001600081526020016000815260200160008152602001600081526020016000815260200160008152602001600081525090565b61013d611bb3565b6101488389886104ba565b6101518361057d565b825261015d83896105a9565b6101668361057d565b506101708361057d565b6020838101919091526040808a0180516101a001518651805160808082018352838701519190920180870191909152825181860152606080840151908201529184015191015251610180015185518051808401825282519101808501919091529201519101526101df8361057d565b60408301526101ee838961066a565b6101f78361057d565b60608301526102058361057d565b6080830152610236838951608001519051805160408082018352835191909201602081810192909252920151910152565b61023f8361057d565b60a083015261024d8361057d565b60c083015261025b8361057d565b60e0830152610268611d22565b60408301517f16e73dfdad310991df5ce19ce85943e01dcb5564b6f24c799d0e470cba9d1811907f1332cb377d53b9c681afa4dc09f66bc37e3f2f33deb33d9b40bd245c971b2447908781840992508781830991505084604001516000036102dc576102d560018861223a565b83526102f0565b600185604001516102ed919061223a565b83525b604085015160a086015160208d015160600151898181038308905089838b0383088a868c0384088b868d03850893508b878d0386088c878e03870895508c878e038908826103e08c0152836104008c0152856104208c01528460208b01528360408b01528260608b01528560808b01528160a08b01528660c08b01528060e08b015250505050505050505061038481610830565b90506000806103d18560400151846000600881106103a4576103a4612224565b602002015160077f300385d5fb6f3ce964dfa52b147e55ac6de38077e8c5fdb0215a31a8c82000016109e6565b915091508251606085015260208301516080850152604083015160a0850152606083015160c0850152608083015160e085015260a083015161010085015260c083015161012085015260e083015161014085015281610160850152806101808501526104438b8587600001518c610a58565b6104945760405162461bcd60e51b815260206004820152601b60248201527f56657269666965723a206761746520636865636b206661696c6564000000000060448201526064015b60405180910390fd5b50506104a1898385610c4f565b6104ad8983858b611540565b9998505050505050505050565b6104d8838260005b6020020151905180516020808201835291010152565b6104e4838260016104c2565b6104f0838260026104c2565b50604090810180515183518051808501825282516020919092018181019290925291820151908401528151606001518451805180860182528251910180840191909152908201519084015281518101518451805180860182528251910180840191909152908201519084015290518201519251805180840182528451910180830191909152920151910152565b80518051602080830191822093810184905290915281905260008051602061227e833981519152900690565b6105d882826040015160a001519051805160408082018352835191909201602081810192909252920151910152565b61060782826040015160e001519051805160408082018352835191909201602081810192909252920151910152565b61063782826040015161010001519051805160408082018352835191909201602081810192909252920151910152565b61066682826040015160c001519051805160408082018352835191909201602081810192909252920151910152565b5050565b61068882826020015160c00151905180516020808201835291010152565b6106a682826020015160e00151905180516020808201835291010152565b6106c58282602001516101000151905180516020808201835291010152565b6106e48282602001516101200151905180516020808201835291010152565b6107038282602001516101400151905180516020808201835291010152565b6107228282602001516101600151905180516020808201835291010152565b6107418282602001516101800151905180516020808201835291010152565b6107608282602001516101a00151905180516020808201835291010152565b61077f8282602001516101c00151905180516020808201835291010152565b61079e8282602001516101e00151905180516020808201835291010152565b6107bd8282602001516102000151905180516020808201835291010152565b6020908101805151835180518085018252018301528051820151835180518085018252018301528051604001518351805180850182520183015280516060015183518051808501825201830152805160800151835180518085018252018301525160a00151915180518083018252010152565b610838611d22565b610840611d22565b600060008051602061227e83398151915290506040518451602086015183818309835250600190505b60088110156108995760208102602081018701516020820384015185818309928501929092525050600101610869565b5060c0810151806108a957600080fd5b50602060e08201526020610100820152602061012082015260c081015161014082015260028203610160820152816101808201526020610280820160c060e0840160055afa80806108f957600080fd5b505060005b6008811015610939578060070360208102870151602082026101a00191508184015185818309928501601f19019290925250506001016108fe565b508185516101c0830151096102a082015260025b600881101561098a5760208181028381016101a001516001198401909202840151909190858183099285016102800192909252505060010161094d565b506101a081015183526102a081015160208401526102c081015160408401526102e08101516060840152610300810151608084015261032081015160a084015261034081015160c0840152610360015160e08301525092915050565b600060008051602061227e83398151915280808715610a205787925060005b86811015610a1b57828485099350600101610a05565b508790505b610a2b60018461223a565b9250818760018303098060018114610a4257600080fd5b5050818783878609099350505094509492505050565b600060008051602061227e8339815191528180610a8d565b600082828309838182098481830991505083838209949350505050565b856020890151610180890151604082015186818309955050508051602082015160c083015160e0840151888383089250610ac78984610a70565b925088818a038408925050508682820990508094505050805160208201516101208301516101408401516101e085015189848b83860808935050610b0b8984610a70565b925088818a038408925050508682820990508687828609860894505050848883099150805160208201516101e08301516101808401516101a085015189848b858508089350610b5a8a85610a70565b935089818b0385089350505050868282099050868782860986089450505084888309915080516101e0820151610200830151878189038308905087838209905087888287098708955050868a8509935060c083015191506101008301516101608c015188898386088a0384089350888185099350888985880988089650888c8709955061018085015193506101c0850151915060208b01518b518a85860894508a84870893508a85850893508a848c03830894508a83860994508a8b868a098a0898508a8e890997508a818c0387089550505088818509935050505085868285098508949094149a9950505050505050505050565b600060008051602061227e833981519152905060006060830151608084015160c0850151848384098584820986858209826101a08b0152816101c08b0152806101e08b015287858609888682096102008c01919091526102208b01528784800988858209898682099550816102408d0152806102608d01525050836102808b015260408b015193506000806040516101008751015181526101208751015160208201528860408201526040600060608360076107d05a03fa995060005160205160405192506101408951015183526101608951015160208401528760408401526040600060608560076107d05a03fa8c169b5060405192508183528060208401525050600051604082015260205160608201526040600060808360066107d05a03fa8a1699506000519250602051915060405190506101808751015181526101a08751015160208201528460408201526040600060608360076107d05a03fa8a1699506040519050828152816020820152600051604082015260205160608201526040600060808360066107d05a03fa8a1699506000519250602051915060405190506102808751015181526102a08751015160208201528360408201526040600060608360076107d05a03fa8a1699506040519050828152816020820152600051604082015260205160608201526040600060808360066107d05a03fa8a1699506000519250602051915060405190508281528160208201526102c08751015160408201526102e08751015160608201526040600060808360066107d05a03fa8a1699505050506000516102a08b01515260205160206102a08c0151015260208b015160208101516040820151606083015160a08401518c8b850993508c8d848a09850893508c8d838909850893508c8d8288098508935050505089825182089050806103408d015250505050600080604051604085510151815260608551015160208201528660408201526040600060608360076107d05a03fa88169750600051925060205191506040519050608085510151815260a08551015160208201528360408201526040600060608360076107d05a03fa881697506040519050828152816020820152600051604082015260205160608201526040600060808360066107d05a03fa88169750604051905060005181526020516020820152845151604082015260208551015160608201526040600060808360066107d05a03fa881697505050506000516102c08901515260205160206102c08a015101526020890151611018565b60008685840987878609888183089150508781840898975050505050505050565b60c08101516101208201516101808301516110378a868a848688610ff7565b6102e08d015250505060e08101516101408201516101a083015161105f8a868a848688610ff7565b6103008d01525050506101008101516101608201516101c0909201519161108a898589868587610ff7565b6103208c015250505050602088015188518051608092830151928a015192955090918781818881038508096103608b015250506020015161034088015160a08901519194509086818184810388080994505050826103808801526020880151925087516040810151905060a088015160c08901516103e08a01516101008b01518981830991506104008c0151818b0391508a8282099050816104408e01526101e0890151915061020089015198508a8b828b098c85850908985050505087818309915050806104608a0152868188878a038508096103a08a0152505087516103e08801516104208901516101008a01516101208b01519396509192909190888385098983820990508982820990506104008c015192506104408c015191506101408c01518a85850994508a83860994508a8186099450506101208c01518a0391506101408c01518a038a86850995508a83870995508a8187099550506102e08c015192506103008c015191506103208c01518a82850993508a8b868509850893508a8b878309850893505050506104608a0151925060e08a0151915087828409925060608601519550878389838b038908096103c08b015250506040805183516102400151815283516102600151602082015260c08901518183015260009550859250908260608360076107d05a03fa95506000519450602051915060405190506102a089015151815260206102a08a01510151602082015261024089015160408201526040600060608360076107d05a03fa95506040519050600051815260205160208201528460408201528160608201526040600060808360066107d05a03fa8616955060005194506020519150604051905060c083510151815260e083510151602082015261026089015160408201526040600060608360076107d05a03fa95506040519050600051815260205160208201528460408201528160608201526040600060808360066107d05a03fa861695506000519450602051915060405190506102c089015151815260206102c08a01510151602082015261028089015160408201526040600060608360076107d05a03fa95506040519050600051815260205160208201528460408201528160608201526040600060808360066107d05a03fa86169550600051945060205191508951604051915060808101515182526020608082015101516020830152508460408201528160608201526040600060808360066107d05a03fa8616955050506000516104a08801515260205160206104a089015101525061020086015191506102208601516103608701518586846103808b015109820890508586856103a08b015109820890508586836103c08b015109820890508061048089015288519350858660c08901518651098208915050848561024089015160208601510982089050848561026089015160408601510982089050848561028089015160608601510982086104c08801525082806114d257600080fd5b505050806115395760405162461bcd60e51b815260206004820152602e60248201527f56657269666965723a206661696c656420746f20636f6d707574652066696e6160448201526d1b081c1bdb1e481bdc88195d985b60921b606482015260840161048b565b5050505050565b60008061155e83611559886040015161010001516117bb565b61185b565b9050600061161261160860405180604001604052807f195b22e5a84c5d5a70e8faea64db9bfe8eb57577cfeb3a7798f5470c60b99bed81526020017f15d250af555dc3dbf386c1bbdd00d9ab2b6908120041bc75f496a6fbe051a49481525061155960408051808201825260008082526020918201528151808301909252600182527f30644e72e131a029b85045b68181585d97816a916871ca8d3c208c16d87cfd459082015290565b8660200151611917565b9050600061168c6116826116776116358b6000015160a001518a60a00151611917565b611559611672611667604080518082018252600080825260209182015281518083019092526001825260029082015290565b8d6104c00151611917565b6117bb565b896104a0015161185b565b8760e00151611917565b905060006116a361169d858561185b565b8361185b565b905060006116af6119c1565b905060006116c48b6040015160e001516117bb565b905060008b604001516101a00151905060006116f46116ea8e6000015160a001516117bb565b8c60e00151611917565b9050600060405180608001604052807f26186a2d65ee4d2f9c9a5b91f86597d35f192cd120caf7e935d8443d1938e23d81526020017f30441fd1b5d3370482c42152a8899027716989a6996c2535bc9f7fee8aaef79e81526020017f1970ea81dd6992adfbc571effb03503adbbb6a857f578403c6c40e22d65b3c0281526020017f054793348f12c0cf5622c340573cb277586319de359ab9389778f689786b1e4881525090506117a9868686868686611a92565b9e9d5050505050505050505050505050565b604080518082019091526000808252602082015281511580156117e057506020820151155b156117fe575050604080518082019091526000808252602082015290565b60007f30644e72e131a029b85045b68181585d97816a916871ca8d3c208c16d87cfd479050604051806040016040528084600001518152602001828560200151611848919061225b565b611852908461223a565b90529392505050565b60408051808201909152600080825260208201526040805180820190915260008082526020820152600061188d611d41565b855181526020808701518183015285516040808401919091529086015160608301528360808360066107d05a03fa915081806118c857600080fd5b508161190b5760405162461bcd60e51b815260206004820152601260248201527110938c8d4d0e881c1b1d5cc819985a5b195960721b604482015260640161048b565b50909150505b92915050565b6040805180820190915260008082526020820152611933611d5f565b8351815260208085015181830152604080830185905280518082018252600080825292810183905291908260608560076107d05a03fa9050808061197657600080fd5b50806119b85760405162461bcd60e51b815260206004820152601160248201527010938c8d4d0e881b5d5b0819985a5b1959607a1b604482015260640161048b565b50949350505050565b6119ec6040518060800160405280600081526020016000815260200160008152602001600081525090565b60405180608001604052807f198e9393920d483a7260bfb731fb5d25f1aa493335a9e71297e485b7aef312c281526020017f1800deef121f1e76426a00665e5c4479674322d4f75edadd46debd5cd992f6ed81526020017f090689d0585ff075ec9e99ad690c3395bc4b313370b38ef355acdadcd122975b81526020017f12c85ea5db8c6deb4aab71808dcb408fe3d1e7690c43d37b4ce6cc0166fa7daa815250905090565b60008060006040518951815260208a01516020820152885160408201526020890151606082015260408901516080820152606089015160a0820152875160c0820152602088015160e08201528651610100820152602087015161012082015260408701516101408201526060870151610160820152855161018082015260208601516101a082015284516101c082015260208501516101e082015260408501516102008201526060850151610220820152602060006102408360085afa915050600051915080611ba45760405162461bcd60e51b815260206004820152601c60248201527f424e3235343a2070616972696e6720636865636b206661696c65642100000000604482015260640161048b565b50600114979650505050505050565b604051806104e00160405280600081526020016000815260200160008152602001600081526020016000815260200160008152602001600081526020016000815260200160008152602001600081526020016000815260200160008152602001600081526020016000815260200160008152602001600081526020016000815260200160008152602001600081526020016000815260200160008152602001611c6f604051806040016040528060008152602001600081525090565b8152602001611c91604051806040016040528060008152602001600081525090565b81526020016000815260200160008152602001600081526020016000815260200160008152602001600081526020016000815260200160008152602001600081526020016000815260200160008152602001600081526020016000815260200160008152602001611d15604051806040016040528060008152602001600081525090565b8152602001600081525090565b6040518061010001604052806008906020820280368337509192915050565b60405180608001604052806004906020820280368337509192915050565b60405180606001604052806003906020820280368337509192915050565b634e487b7160e01b600052604160045260246000fd5b604051610220810167ffffffffffffffff81118282101715611db757611db7611d7d565b60405290565b6040516101c0810167ffffffffffffffff81118282101715611db757611db7611d7d565b6040516060810167ffffffffffffffff81118282101715611db757611db7611d7d565b60405160c0810167ffffffffffffffff81118282101715611db757611db7611d7d565b600060408284031215611e3957600080fd5b6040516040810181811067ffffffffffffffff82111715611e5c57611e5c611d7d565b604052823581526020928301359281019290925250919050565b60006102208284031215611e8957600080fd5b611e91611d93565b823581526020808401359082015260408084013590820152606080840135908201526080808401359082015260a0808401359082015260c0808401359082015260e08084013590820152610100808401359082015261012080840135908201526101408084013590820152610160808401359082015261018080840135908201526101a080840135908201526101c080840135908201526101e08084013590820152610200928301359281019290925250919050565b600060808284031215611f5957600080fd5b6040516080810181811067ffffffffffffffff82111715611f7c57611f7c611d7d565b8060405250809150823581526020830135602082015260408301356040820152606083013560608201525092915050565b60006103c08284031215611fc057600080fd5b611fc8611dbd565b9050611fd48383611e27565b8152611fe38360408401611e27565b6020820152611ff58360808401611e27565b60408201526120078360c08401611e27565b606082015261010061201b84828501611e27565b608083015261014061202f85828601611e27565b60a084015261018061204386828701611e27565b60c0850152612056866101c08701611e27565b60e0850152612069866102008701611e27565b8385015261207b866102408701611e27565b61012085015261208f866102808701611e27565b828501526120a1866102c08701611e27565b6101608501526120b5866103008701611e27565b818501525050506120ca836103408401611f47565b6101a082015292915050565b600082601f8301126120e757600080fd5b6040516060810181811067ffffffffffffffff8211171561210a5761210a611d7d565b60405280606084018581111561211f57600080fd5b845b81811015612139578035835260209283019201612121565b509195945050505050565b600080600083850361078081121561215b57600080fd5b6106e08082121561216b57600080fd5b612173611de1565b6101008084121561218357600080fd5b61218b611e04565b9350873584526020880135602085015260408801356040850152606088013560608501526121bc8960808a01611e27565b60808501526121ce8960c08a01611e27565b60a08501528382526121e289828a01611e76565b6020830152506121f6886103208901611fad565b6040820152945061220987878301611e27565b9350505061221b8561072086016120d6565b90509250925092565b634e487b7160e01b600052603260045260246000fd5b8181038181111561191157634e487b7160e01b600052601160045260246000fd5b60008261227857634e487b7160e01b600052601260045260246000fd5b50069056fe30644e72e131a029b85045b68181585d2833e84879b9709143e1f593f0000001a2646970667358221220db452f8368fb486d547837b8245dddafbbe13521957495aa0863e799947a7b3264736f6c63430008110033",
    "linkReferences": {}
  },
  "methodIdentifiers": {
    "verify(((uint256,uint256,uint256,uint256,(uint256,uint256),(uint256,uint256)),(uint256,uint256,uint256,uint256,uint256,uint256,uint256,uint256,uint256,uint256,uint256,uint256,uint256,uint256,uint256,uint256,uint256),((uint256,uint256),(uint256,uint256),(uint256,uint256),(uint256,uint256),(uint256,uint256),(uint256,uint256),(uint256,uint256),(uint256,uint256),(uint256,uint256),(uint256,uint256),(uint256,uint256),(uint256,uint256),(uint256,uint256),(uint256,uint256,uint256,uint256))),(uint256,uint256),uint256[3])": "b3da592b"
  },
  "id": 23
}